{
  "transactions": [
    {
      "hash": "0xde360f1e689ab6eb538243e7ff9276ea4677fa2fd3ba774379680f77abd468a2",
      "transactionType": "CALL",
      "contractName": null,
      "contractAddress": "0x8c4bcbe6b9ef47855f97e675296fa3f6fafa5f1a",
      "function": "initialize((address,address,uint24,int24,address),uint160)",
      "arguments": [
        "(0x1a7e4e63778B4f12a199C062f3eFdD288afCBce8, 0x7b79995e5f793A07Bc00c21412e50Ecae098E7f9, 3000, 60, 0x88Bb6571DB4f0eb66831E1De0804D033686ab0c0)",
        "1372272028650297984479657984"
      ],
      "transaction": {
        "from": "0xa3ffc6ecf93a5ab2334aa4e146a4d49582b9e289",
        "to": "0x8c4bcbe6b9ef47855f97e675296fa3f6fafa5f1a",
        "gas": "0x33395",
        "value": "0x0",
        "input": "0x6276cbbe0000000000000000000000001a7e4e63778b4f12a199c062f3efdd288afcbce80000000000000000000000007b79995e5f793a07bc00c21412e50ecae098e7f90000000000000000000000000000000000000000000000000000000000000bb8000000000000000000000000000000000000000000000000000000000000003c00000000000000000000000088bb6571db4f0eb66831e1de0804d033686ab0c00000000000000000000000000000000000000000046f1de7bc353a0000000000",
        "nonce": "0x3a",
        "chainId": "0xaa36a7"
      },
      "additionalContracts": [],
      "isFixedGasLimit": false
    }
  ],
  "receipts": [
    {
      "status": "0x1",
      "cumulativeGasUsed": "0x1ada46f",
      "logs": [
        {
          "address": "0x8c4bcbe6b9ef47855f97e675296fa3f6fafa5f1a",
          "topics": [
            "0xdd466e674ea557f56295e2d0218a125ea4b4f0f6f3307b95f85e6110838d6438",
            "0xe741f1d22b92de0a7e2c64a80381b0ffccbbe0d3b8535bec271c249d0d88faa4",
            "0x0000000000000000000000001a7e4e63778b4f12a199c062f3efdd288afcbce8",
            "0x0000000000000000000000007b79995e5f793a07bc00c21412e50ecae098e7f9"
          ],
          "data": "0x0000000000000000000000000000000000000000000000000000000000000bb8000000000000000000000000000000000000000000000000000000000000003c00000000000000000000000088bb6571db4f0eb66831e1de0804d033686ab0c00000000000000000000000000000000000000000046f1de7bc353a0000000000fffffffffffffffffffffffffffffffffffffffffffffffffffffffffffec31e",
          "blockHash": "0xb115eb6a298803ab0f8e5702e9bb3605ce6c096daa1fec192143303280478146",
          "blockNumber": "0xa69ec9",
          "blockTimestamp": "0x6a145dd8",
          "transactionHash": "0xde360f1e689ab6eb538243e7ff9276ea4677fa2fd3ba774379680f77abd468a2",
          "transactionIndex": "0xf1",
          "logIndex": "0x283",
          "removed": false
        }
      ],
      "logsBloom": "0x00000000000000000000000000000000000000000000000000000000000000000000000000000002000000000000000000000000000000020000000000000000000000000000000000000040000000000000004000000000000880000000000000000000100000000000000000000000000000000000000000000000000000000000000000010008000000000000000000000001000000000000000000200000000000000000000000000000000000000000000000000000000000000000000000000000000000000010000000800000000020000000000000000000000000000000000000000000000000000000000000000000000000000000000000000000",
      "type": "0x2",
      "transactionHash": "0xde360f1e689ab6eb538243e7ff9276ea4677fa2fd3ba774379680f77abd468a2",
      "transactionIndex": "0xf1",
      "blockHash": "0xb115eb6a298803ab0f8e5702e9bb3605ce6c096daa1fec192143303280478146",
      "blockNumber": "0xa69ec9",
      "gasUsed": "0x2515e",
      "effectiveGasPrice": "0x480b20d3",
      "from": "0xa3ffc6ecf93a5ab2334aa4e146a4d49582b9e289",
      "to": "0x8c4bcbe6b9ef47855f97e675296fa3f6fafa5f1a",
      "contractAddress": null
    }
  ],
  "libraries": [],
  "pending": [],
  "returns": {},
  "timestamp": 1779719391900,
  "chain": 11155111,
  "commit": "cd839aa"
}