{
  "transactions": [
    {
      "hash": "0xd418db799452388b07d7ef7bac6bafd156dd71866abb93429d723a6915b7a420",
      "transactionType": "CALL",
      "contractName": null,
      "contractAddress": "0x08210f9170f89ab7658f0b5e3ff39b0e03c594d4",
      "function": "approve(address,uint256)",
      "arguments": [
        "0x000000000022D473030F116dDEE9F6B43aC78BA3",
        "115792089237316195423570985008687907853269984665640564039457584007913129639935"
      ],
      "transaction": {
        "from": "0xa3ffc6ecf93a5ab2334aa4e146a4d49582b9e289",
        "to": "0x08210f9170f89ab7658f0b5e3ff39b0e03c594d4",
        "gas": "0x12ca9",
        "value": "0x0",
        "input": "0x095ea7b3000000000000000000000000000000000022d473030f116ddee9f6b43ac78ba3ffffffffffffffffffffffffffffffffffffffffffffffffffffffffffffffff",
        "nonce": "0x17",
        "chainId": "0xaa36a7"
      },
      "additionalContracts": [],
      "isFixedGasLimit": false
    },
    {
      "hash": "0x5f9a60d8939fb3071a6afcad5b7c9b5585f5d64f5145f0b1f27cf77186dffb0b",
      "transactionType": "CALL",
      "contractName": null,
      "contractAddress": "0x7b79995e5f793a07bc00c21412e50ecae098e7f9",
      "function": "approve(address,uint256)",
      "arguments": [
        "0x000000000022D473030F116dDEE9F6B43aC78BA3",
        "115792089237316195423570985008687907853269984665640564039457584007913129639935"
      ],
      "transaction": {
        "from": "0xa3ffc6ecf93a5ab2334aa4e146a4d49582b9e289",
        "to": "0x7b79995e5f793a07bc00c21412e50ecae098e7f9",
        "gas": "0xf9b8",
        "value": "0x0",
        "input": "0x095ea7b3000000000000000000000000000000000022d473030f116ddee9f6b43ac78ba3ffffffffffffffffffffffffffffffffffffffffffffffffffffffffffffffff",
        "nonce": "0x18",
        "chainId": "0xaa36a7"
      },
      "additionalContracts": [],
      "isFixedGasLimit": false
    },
    {
      "hash": "0x007275d8c7558940ae1131b927251dcd8f242e405fed8c247b59b83020d6e3fc",
      "transactionType": "CALL",
      "contractName": null,
      "contractAddress": "0x000000000022d473030f116ddee9f6b43ac78ba3",
      "function": "approve(address,address,uint160,uint48)",
      "arguments": [
        "0x08210F9170F89Ab7658F0B5E3fF39b0E03C594D4",
        "0x429ba70129df741B2Ca2a85BC3A2a3328e5c09b4",
        "1461501637330902918203684832716283019655932542975",
        "281474976710655"
      ],
      "transaction": {
        "from": "0xa3ffc6ecf93a5ab2334aa4e146a4d49582b9e289",
        "to": "0x000000000022d473030f116ddee9f6b43ac78ba3",
        "gas": "0x1112d",
        "value": "0x0",
        "input": "0x87517c4500000000000000000000000008210f9170f89ab7658f0b5e3ff39b0e03c594d4000000000000000000000000429ba70129df741b2ca2a85bc3a2a3328e5c09b4000000000000000000000000ffffffffffffffffffffffffffffffffffffffff0000000000000000000000000000000000000000000000000000ffffffffffff",
        "nonce": "0x19",
        "chainId": "0xaa36a7"
      },
      "additionalContracts": [],
      "isFixedGasLimit": false
    },
    {
      "hash": "0x890321ea70e564277dc37fb5307b3c25bd2211da1953d1aaa42a5584bb46b548",
      "transactionType": "CALL",
      "contractName": null,
      "contractAddress": "0x000000000022d473030f116ddee9f6b43ac78ba3",
      "function": "approve(address,address,uint160,uint48)",
      "arguments": [
        "0x7b79995e5f793A07Bc00c21412e50Ecae098E7f9",
        "0x429ba70129df741B2Ca2a85BC3A2a3328e5c09b4",
        "1461501637330902918203684832716283019655932542975",
        "281474976710655"
      ],
      "transaction": {
        "from": "0xa3ffc6ecf93a5ab2334aa4e146a4d49582b9e289",
        "to": "0x000000000022d473030f116ddee9f6b43ac78ba3",
        "gas": "0x101ee",
        "value": "0x0",
        "input": "0x87517c450000000000000000000000007b79995e5f793a07bc00c21412e50ecae098e7f9000000000000000000000000429ba70129df741b2ca2a85bc3a2a3328e5c09b4000000000000000000000000ffffffffffffffffffffffffffffffffffffffff0000000000000000000000000000000000000000000000000000ffffffffffff",
        "nonce": "0x1a",
        "chainId": "0xaa36a7"
      },
      "additionalContracts": [],
      "isFixedGasLimit": false
    },
    {
      "hash": "0xf92e2519c2a75612454b909cf7d0ac9ca4f70cfbc745755774113cef362b27ed",
      "transactionType": "CALL",
      "contractName": null,
      "contractAddress": "0x429ba70129df741b2ca2a85bc3a2a3328e5c09b4",
      "function": "multicall(bytes[])",
      "arguments": [
        "[0xf702040500000000000000000000000008210f9170f89ab7658f0b5e3ff39b0e03c594d40000000000000000000000007b79995e5f793a07bc00c21412e50ecae098e7f90000000000000000000000000000000000000000000000000000000000000bb8000000000000000000000000000000000000000000000000000000000000003c000000000000000000000000e29c9091958fe4fbefea58f9b8e99dcc423710c0000000000000000000000000000000000000000100000000000000000000000000000000000000000000000000000000000000000000000000000000000000e00000000000000000000000000000000000000000000000000000000000000000, 0xdd46508f0000000000000000000000000000000000000000000000000000000000000040000000000000000000000000000000000000000000000000000000006a1077500000000000000000000000000000000000000000000000000000000000000400000000000000000000000000000000000000000000000000000000000000004000000000000000000000000000000000000000000000000000000000000000800000000000000000000000000000000000000000000000000000000000000004020d14140000000000000000000000000000000000000000000000000000000000000000000000000000000000000000000000000000000000000000000000040000000000000000000000000000000000000000000000000000000000000080000000000000000000000000000000000000000000000000000000000000024000000000000000000000000000000000000000000000000000000000000002a0000000000000000000000000000000000000000000000000000000000000030000000000000000000000000000000000000000000000000000000000000001a000000000000000000000000008210f9170f89ab7658f0b5e3ff39b0e03c594d40000000000000000000000007b79995e5f793a07bc00c21412e50ecae098e7f90000000000000000000000000000000000000000000000000000000000000bb8000000000000000000000000000000000000000000000000000000000000003c000000000000000000000000e29c9091958fe4fbefea58f9b8e99dcc423710c0ffffffffffffffffffffffffffffffffffffffffffffffffffffffffffffffc4000000000000000000000000000000000000000000000000000000000000003c000000000000000000000000000000000000000000000000000000031bf605840000000000000000000000000000000000000000000000000000000002625a01000000000000000000000000000000000000000000000000016345785d8a0001000000000000000000000000a3ffc6ecf93a5ab2334aa4e146a4d49582b9e28900000000000000000000000000000000000000000000000000000000000001800000000000000000000000000000000000000000000000000000000000000000000000000000000000000000000000000000000000000000000000000000004000000000000000000000000008210f9170f89ab7658f0b5e3ff39b0e03c594d40000000000000000000000007b79995e5f793a07bc00c21412e50ecae098e7f9000000000000000000000000000000000000000000000000000000000000004000000000000000000000000008210f9170f89ab7658f0b5e3ff39b0e03c594d4000000000000000000000000a3ffc6ecf93a5ab2334aa4e146a4d49582b9e28900000000000000000000000000000000000000000000000000000000000000400000000000000000000000007b79995e5f793a07bc00c21412e50ecae098e7f9000000000000000000000000a3ffc6ecf93a5ab2334aa4e146a4d49582b9e289]"
      ],
      "transaction": {
        "from": "0xa3ffc6ecf93a5ab2334aa4e146a4d49582b9e289",
        "to": "0x429ba70129df741b2ca2a85bc3a2a3328e5c09b4",
        "gas": "0xc0dfa",
        "value": "0x0",
        "input": "0xac9650d800000000000000000000000000000000000000000000000000000000000000200000000000000000000000000000000000000000000000000000000000000002000000000000000000000000000000000000000000000000000000000000004000000000000000000000000000000000000000000000000000000000000001800000000000000000000000000000000000000000000000000000000000000104f702040500000000000000000000000008210f9170f89ab7658f0b5e3ff39b0e03c594d40000000000000000000000007b79995e5f793a07bc00c21412e50ecae098e7f90000000000000000000000000000000000000000000000000000000000000bb8000000000000000000000000000000000000000000000000000000000000003c000000000000000000000000e29c9091958fe4fbefea58f9b8e99dcc423710c0000000000000000000000000000000000000000100000000000000000000000000000000000000000000000000000000000000000000000000000000000000e00000000000000000000000000000000000000000000000000000000000000000000000000000000000000000000000000000000000000000000000000000000000000000000000000000000000000000000000000000000000000464dd46508f0000000000000000000000000000000000000000000000000000000000000040000000000000000000000000000000000000000000000000000000006a1077500000000000000000000000000000000000000000000000000000000000000400000000000000000000000000000000000000000000000000000000000000004000000000000000000000000000000000000000000000000000000000000000800000000000000000000000000000000000000000000000000000000000000004020d14140000000000000000000000000000000000000000000000000000000000000000000000000000000000000000000000000000000000000000000000040000000000000000000000000000000000000000000000000000000000000080000000000000000000000000000000000000000000000000000000000000024000000000000000000000000000000000000000000000000000000000000002a0000000000000000000000000000000000000000000000000000000000000030000000000000000000000000000000000000000000000000000000000000001a000000000000000000000000008210f9170f89ab7658f0b5e3ff39b0e03c594d40000000000000000000000007b79995e5f793a07bc00c21412e50ecae098e7f90000000000000000000000000000000000000000000000000000000000000bb8000000000000000000000000000000000000000000000000000000000000003c000000000000000000000000e29c9091958fe4fbefea58f9b8e99dcc423710c0ffffffffffffffffffffffffffffffffffffffffffffffffffffffffffffffc4000000000000000000000000000000000000000000000000000000000000003c000000000000000000000000000000000000000000000000000000031bf605840000000000000000000000000000000000000000000000000000000002625a01000000000000000000000000000000000000000000000000016345785d8a0001000000000000000000000000a3ffc6ecf93a5ab2334aa4e146a4d49582b9e28900000000000000000000000000000000000000000000000000000000000001800000000000000000000000000000000000000000000000000000000000000000000000000000000000000000000000000000000000000000000000000000004000000000000000000000000008210f9170f89ab7658f0b5e3ff39b0e03c594d40000000000000000000000007b79995e5f793a07bc00c21412e50ecae098e7f9000000000000000000000000000000000000000000000000000000000000004000000000000000000000000008210f9170f89ab7658f0b5e3ff39b0e03c594d4000000000000000000000000a3ffc6ecf93a5ab2334aa4e146a4d49582b9e28900000000000000000000000000000000000000000000000000000000000000400000000000000000000000007b79995e5f793a07bc00c21412e50ecae098e7f9000000000000000000000000a3ffc6ecf93a5ab2334aa4e146a4d49582b9e28900000000000000000000000000000000000000000000000000000000",
        "nonce": "0x1b",
        "chainId": "0xaa36a7"
      },
      "additionalContracts": [],
      "isFixedGasLimit": false
    }
  ],
  "receipts": [
    {
      "status": "0x1",
      "cumulativeGasUsed": "0xf65f30",
      "logs": [
        {
          "address": "0x08210f9170f89ab7658f0b5e3ff39b0e03c594d4",
          "topics": [
            "0x8c5be1e5ebec7d5bd14f71427d1e84f3dd0314c0f7b2291e5b200ac8c7c3b925",
            "0x000000000000000000000000a3ffc6ecf93a5ab2334aa4e146a4d49582b9e289",
            "0x000000000000000000000000000000000022d473030f116ddee9f6b43ac78ba3"
          ],
          "data": "0xffffffffffffffffffffffffffffffffffffffffffffffffffffffffffffffff",
          "blockHash": "0x202b2040cc9dcd7230c67cb56b03655e7bacf05bc4cdf0359130e220b4f7c1f2",
          "blockNumber": "0xa64baa",
          "blockTimestamp": "0x6a106988",
          "transactionHash": "0xd418db799452388b07d7ef7bac6bafd156dd71866abb93429d723a6915b7a420",
          "transactionIndex": "0x96",
          "logIndex": "0x1ab",
          "removed": false
        }
      ],
      "logsBloom": "0x00000000000000000000000000000000000000000000000000000000000000000000000000000000000000000000000000000000800000000000000000200000000000000400000000004000000000002000000000000800000000000000000000000000000000000004040000000000000000000002000000000000000000000000000000000000000000000000000000000000000000000000000000000000020000000000000000000000000000000000000000000000000000000000000040000000000000000000000000000000000000000000000000000000000000000010000000000000000000000000000000000000000000000000000000000000",
      "type": "0x2",
      "transactionHash": "0xd418db799452388b07d7ef7bac6bafd156dd71866abb93429d723a6915b7a420",
      "transactionIndex": "0x96",
      "blockHash": "0x202b2040cc9dcd7230c67cb56b03655e7bacf05bc4cdf0359130e220b4f7c1f2",
      "blockNumber": "0xa64baa",
      "gasUsed": "0xd9ad",
      "effectiveGasPrice": "0x3ffbde3a",
      "from": "0xa3ffc6ecf93a5ab2334aa4e146a4d49582b9e289",
      "to": "0x08210f9170f89ab7658f0b5e3ff39b0e03c594d4",
      "contractAddress": null
    },
    {
      "status": "0x1",
      "cumulativeGasUsed": "0xf713fc",
      "logs": [
        {
          "address": "0x7b79995e5f793a07bc00c21412e50ecae098e7f9",
          "topics": [
            "0x8c5be1e5ebec7d5bd14f71427d1e84f3dd0314c0f7b2291e5b200ac8c7c3b925",
            "0x000000000000000000000000a3ffc6ecf93a5ab2334aa4e146a4d49582b9e289",
            "0x000000000000000000000000000000000022d473030f116ddee9f6b43ac78ba3"
          ],
          "data": "0xffffffffffffffffffffffffffffffffffffffffffffffffffffffffffffffff",
          "blockHash": "0x202b2040cc9dcd7230c67cb56b03655e7bacf05bc4cdf0359130e220b4f7c1f2",
          "blockNumber": "0xa64baa",
          "blockTimestamp": "0x6a106988",
          "transactionHash": "0x5f9a60d8939fb3071a6afcad5b7c9b5585f5d64f5145f0b1f27cf77186dffb0b",
          "transactionIndex": "0x97",
          "logIndex": "0x1ac",
          "removed": false
        }
      ],
      "logsBloom": "0x00000000000000000000000000000000000000000000000000000004000000000000000000000000000000000000000000000000800000000000000000200000000000000000000000004000000000002000000000000800000000000000000000000000000000000004000000000000000000000002000000000000000000000000000000000000000000000000000000000000000000000000000000000000020000000000000000000000000000080000000000000000000000000000000000000002000000000000000000000000000000000000000000000000000000000010000000000000000000000000000000000000000000000000000000000000",
      "type": "0x2",
      "transactionHash": "0x5f9a60d8939fb3071a6afcad5b7c9b5585f5d64f5145f0b1f27cf77186dffb0b",
      "transactionIndex": "0x97",
      "blockHash": "0x202b2040cc9dcd7230c67cb56b03655e7bacf05bc4cdf0359130e220b4f7c1f2",
      "blockNumber": "0xa64baa",
      "gasUsed": "0xb4cc",
      "effectiveGasPrice": "0x3ffbde3a",
      "from": "0xa3ffc6ecf93a5ab2334aa4e146a4d49582b9e289",
      "to": "0x7b79995e5f793a07bc00c21412e50ecae098e7f9",
      "contractAddress": null
    },
    {
      "status": "0x1",
      "cumulativeGasUsed": "0xf7cec6",
      "logs": [
        {
          "address": "0x000000000022d473030f116ddee9f6b43ac78ba3",
          "topics": [
            "0xda9fa7c1b00402c17d0161b249b1ab8bbec047c5a52207b9c112deffd817036b",
            "0x000000000000000000000000a3ffc6ecf93a5ab2334aa4e146a4d49582b9e289",
            "0x00000000000000000000000008210f9170f89ab7658f0b5e3ff39b0e03c594d4",
            "0x000000000000000000000000429ba70129df741b2ca2a85bc3a2a3328e5c09b4"
          ],
          "data": "0x000000000000000000000000ffffffffffffffffffffffffffffffffffffffff0000000000000000000000000000000000000000000000000000ffffffffffff",
          "blockHash": "0x202b2040cc9dcd7230c67cb56b03655e7bacf05bc4cdf0359130e220b4f7c1f2",
          "blockNumber": "0xa64baa",
          "blockTimestamp": "0x6a106988",
          "transactionHash": "0x007275d8c7558940ae1131b927251dcd8f242e405fed8c247b59b83020d6e3fc",
          "transactionIndex": "0x98",
          "logIndex": "0x1ad",
          "removed": false
        }
      ],
      "logsBloom": "0x00010000000000000000000000000000000000000000000000000000000000000000000000000040080400000000000000000000000000000000000000080000000000000000000000000000000000002000000000000000000000000000000000000000000000000004000000000000000000000002000000000800000000000020000000000000000000000000000000000000000000000000000000000000000000000000000000000000000000000040000000000000000000080000000000000000000000000000000000000000000000000000000040000000000000000000000000000000000000000000000000000000000000000000000400000400",
      "type": "0x2",
      "transactionHash": "0x007275d8c7558940ae1131b927251dcd8f242e405fed8c247b59b83020d6e3fc",
      "transactionIndex": "0x98",
      "blockHash": "0x202b2040cc9dcd7230c67cb56b03655e7bacf05bc4cdf0359130e220b4f7c1f2",
      "blockNumber": "0xa64baa",
      "gasUsed": "0xbaca",
      "effectiveGasPrice": "0x3ffbde3a",
      "from": "0xa3ffc6ecf93a5ab2334aa4e146a4d49582b9e289",
      "to": "0x000000000022d473030f116ddee9f6b43ac78ba3",
      "contractAddress": null
    },
    {
      "status": "0x1",
      "cumulativeGasUsed": "0xf88984",
      "logs": [
        {
          "address": "0x000000000022d473030f116ddee9f6b43ac78ba3",
          "topics": [
            "0xda9fa7c1b00402c17d0161b249b1ab8bbec047c5a52207b9c112deffd817036b",
            "0x000000000000000000000000a3ffc6ecf93a5ab2334aa4e146a4d49582b9e289",
            "0x0000000000000000000000007b79995e5f793a07bc00c21412e50ecae098e7f9",
            "0x000000000000000000000000429ba70129df741b2ca2a85bc3a2a3328e5c09b4"
          ],
          "data": "0x000000000000000000000000ffffffffffffffffffffffffffffffffffffffff0000000000000000000000000000000000000000000000000000ffffffffffff",
          "blockHash": "0x202b2040cc9dcd7230c67cb56b03655e7bacf05bc4cdf0359130e220b4f7c1f2",
          "blockNumber": "0xa64baa",
          "blockTimestamp": "0x6a106988",
          "transactionHash": "0x890321ea70e564277dc37fb5307b3c25bd2211da1953d1aaa42a5584bb46b548",
          "transactionIndex": "0x99",
          "logIndex": "0x1ae",
          "removed": false
        }
      ],
      "logsBloom": "0x00010000000000000000000000000000000000000000000000000000000000000000000000000042080000000000000000000000000000000000000000080000000000000000000000000040000000002000004000000000000000000000000000000000000000000004000000000000000000000002000000000800000000000020000000000000000000000000000000000000000000000000000000000000000000000000000000000000000000000000000000000000000000080000000000000000000000000000000000000000000000000000000040000000000000000000000000000000000000000000000000000000000000000000000000000400",
      "type": "0x2",
      "transactionHash": "0x890321ea70e564277dc37fb5307b3c25bd2211da1953d1aaa42a5584bb46b548",
      "transactionIndex": "0x99",
      "blockHash": "0x202b2040cc9dcd7230c67cb56b03655e7bacf05bc4cdf0359130e220b4f7c1f2",
      "blockNumber": "0xa64baa",
      "gasUsed": "0xbabe",
      "effectiveGasPrice": "0x3ffbde3a",
      "from": "0xa3ffc6ecf93a5ab2334aa4e146a4d49582b9e289",
      "to": "0x000000000022d473030f116ddee9f6b43ac78ba3",
      "contractAddress": null
    },
    {
      "status": "0x1",
      "cumulativeGasUsed": "0x1017d29",
      "logs": [
        {
          "address": "0xe03a1074c86cfedd5c142c4f04f1a1536e203543",
          "topics": [
            "0xdd466e674ea557f56295e2d0218a125ea4b4f0f6f3307b95f85e6110838d6438",
            "0x359a0c388563a57708621295f21e728087de6edec724f2a0acdc4e53511d4af8",
            "0x00000000000000000000000008210f9170f89ab7658f0b5e3ff39b0e03c594d4",
            "0x0000000000000000000000007b79995e5f793a07bc00c21412e50ecae098e7f9"
          ],
          "data": "0x0000000000000000000000000000000000000000000000000000000000000bb8000000000000000000000000000000000000000000000000000000000000003c000000000000000000000000e29c9091958fe4fbefea58f9b8e99dcc423710c000000000000000000000000000000000000000010000000000000000000000000000000000000000000000000000000000000000000000000000000000000000",
          "blockHash": "0x202b2040cc9dcd7230c67cb56b03655e7bacf05bc4cdf0359130e220b4f7c1f2",
          "blockNumber": "0xa64baa",
          "blockTimestamp": "0x6a106988",
          "transactionHash": "0xf92e2519c2a75612454b909cf7d0ac9ca4f70cfbc745755774113cef362b27ed",
          "transactionIndex": "0x9b",
          "logIndex": "0x1b0",
          "removed": false
        },
        {
          "address": "0x429ba70129df741b2ca2a85bc3a2a3328e5c09b4",
          "topics": [
            "0xddf252ad1be2c89b69c2b068fc378daa952ba7f163c4a11628f55a4df523b3ef",
            "0x0000000000000000000000000000000000000000000000000000000000000000",
            "0x000000000000000000000000a3ffc6ecf93a5ab2334aa4e146a4d49582b9e289",
            "0x00000000000000000000000000000000000000000000000000000000000088bc"
          ],
          "data": "0x",
          "blockHash": "0x202b2040cc9dcd7230c67cb56b03655e7bacf05bc4cdf0359130e220b4f7c1f2",
          "blockNumber": "0xa64baa",
          "blockTimestamp": "0x6a106988",
          "transactionHash": "0xf92e2519c2a75612454b909cf7d0ac9ca4f70cfbc745755774113cef362b27ed",
          "transactionIndex": "0x9b",
          "logIndex": "0x1b1",
          "removed": false
        },
        {
          "address": "0xe03a1074c86cfedd5c142c4f04f1a1536e203543",
          "topics": [
            "0xf208f4912782fd25c7f114ca3723a2d5dd6f3bcc3ac8db5af63baa85f711d5ec",
            "0x359a0c388563a57708621295f21e728087de6edec724f2a0acdc4e53511d4af8",
            "0x000000000000000000000000429ba70129df741b2ca2a85bc3a2a3328e5c09b4"
          ],
          "data": "0xffffffffffffffffffffffffffffffffffffffffffffffffffffffffffffffc4000000000000000000000000000000000000000000000000000000000000003c000000000000000000000000000000000000000000000000000000031bf6058400000000000000000000000000000000000000000000000000000000000088bc",
          "blockHash": "0x202b2040cc9dcd7230c67cb56b03655e7bacf05bc4cdf0359130e220b4f7c1f2",
          "blockNumber": "0xa64baa",
          "blockTimestamp": "0x6a106988",
          "transactionHash": "0xf92e2519c2a75612454b909cf7d0ac9ca4f70cfbc745755774113cef362b27ed",
          "transactionIndex": "0x9b",
          "logIndex": "0x1b2",
          "removed": false
        },
        {
          "address": "0x08210f9170f89ab7658f0b5e3ff39b0e03c594d4",
          "topics": [
            "0xddf252ad1be2c89b69c2b068fc378daa952ba7f163c4a11628f55a4df523b3ef",
            "0x000000000000000000000000a3ffc6ecf93a5ab2334aa4e146a4d49582b9e289",
            "0x000000000000000000000000e03a1074c86cfedd5c142c4f04f1a1536e203543"
          ],
          "data": "0x0000000000000000000000000000000000000000000000000000000002625a00",
          "blockHash": "0x202b2040cc9dcd7230c67cb56b03655e7bacf05bc4cdf0359130e220b4f7c1f2",
          "blockNumber": "0xa64baa",
          "blockTimestamp": "0x6a106988",
          "transactionHash": "0xf92e2519c2a75612454b909cf7d0ac9ca4f70cfbc745755774113cef362b27ed",
          "transactionIndex": "0x9b",
          "logIndex": "0x1b3",
          "removed": false
        },
        {
          "address": "0x7b79995e5f793a07bc00c21412e50ecae098e7f9",
          "topics": [
            "0xddf252ad1be2c89b69c2b068fc378daa952ba7f163c4a11628f55a4df523b3ef",
            "0x000000000000000000000000a3ffc6ecf93a5ab2334aa4e146a4d49582b9e289",
            "0x000000000000000000000000e03a1074c86cfedd5c142c4f04f1a1536e203543"
          ],
          "data": "0x0000000000000000000000000000000000000000000000000000000002625a00",
          "blockHash": "0x202b2040cc9dcd7230c67cb56b03655e7bacf05bc4cdf0359130e220b4f7c1f2",
          "blockNumber": "0xa64baa",
          "blockTimestamp": "0x6a106988",
          "transactionHash": "0xf92e2519c2a75612454b909cf7d0ac9ca4f70cfbc745755774113cef362b27ed",
          "transactionIndex": "0x9b",
          "logIndex": "0x1b4",
          "removed": false
        }
      ],
      "logsBloom": "0x00000000000000000000001000000000000000000000000000000004080000000000000000000042080400000000000000000100000100002000000000000000000000000400000000000048000000002000004000000000000000000000000000000000020000000004040080000804000000000002100000000810000000000000000001000408000010000000000000000001000000000000000000200000000004000000000000000000000000080040000000400000000000000000000040000002000000000000000000400000000000000000000000001000000020001000000000000004000000000000000004000000000000000000000400000000",
      "type": "0x2",
      "transactionHash": "0xf92e2519c2a75612454b909cf7d0ac9ca4f70cfbc745755774113cef362b27ed",
      "transactionIndex": "0x9b",
      "blockHash": "0x202b2040cc9dcd7230c67cb56b03655e7bacf05bc4cdf0359130e220b4f7c1f2",
      "blockNumber": "0xa64baa",
      "gasUsed": "0x83e12",
      "effectiveGasPrice": "0x3ffbde3a",
      "from": "0xa3ffc6ecf93a5ab2334aa4e146a4d49582b9e289",
      "to": "0x429ba70129df741b2ca2a85bc3a2a3328e5c09b4",
      "contractAddress": null
    }
  ],
  "libraries": [],
  "pending": [],
  "returns": {},
  "timestamp": 1779460243298,
  "chain": 11155111,
  "commit": "cd839aa"
}