{
  "transactions": [
    {
      "hash": "0x9bae7f06bb6278c20c8339ca6c6ff49ff15e840e484e40bb9aee4095b033d5df",
      "transactionType": "CALL",
      "contractName": null,
      "contractAddress": "0x08210f9170f89ab7658f0b5e3ff39b0e03c594d4",
      "function": "approve(address,uint256)",
      "arguments": [
        "0x000000000022D473030F116dDEE9F6B43aC78BA3",
        "115792089237316195423570985008687907853269984665640564039457584007913129639935"
      ],
      "transaction": {
        "from": "0xa3ffc6ecf93a5ab2334aa4e146a4d49582b9e289",
        "to": "0x08210f9170f89ab7658f0b5e3ff39b0e03c594d4",
        "gas": "0xdca8",
        "value": "0x0",
        "input": "0x095ea7b3000000000000000000000000000000000022d473030f116ddee9f6b43ac78ba3ffffffffffffffffffffffffffffffffffffffffffffffffffffffffffffffff",
        "nonce": "0x2e",
        "chainId": "0xaa36a7"
      },
      "additionalContracts": [],
      "isFixedGasLimit": false
    },
    {
      "hash": "0xd50474fde9d0f5e7092bd9ee0399bb3f45bfdc0a94fd5477c7a1dc874c1e5bdd",
      "transactionType": "CALL",
      "contractName": null,
      "contractAddress": "0x7b79995e5f793a07bc00c21412e50ecae098e7f9",
      "function": "approve(address,uint256)",
      "arguments": [
        "0x000000000022D473030F116dDEE9F6B43aC78BA3",
        "115792089237316195423570985008687907853269984665640564039457584007913129639935"
      ],
      "transaction": {
        "from": "0xa3ffc6ecf93a5ab2334aa4e146a4d49582b9e289",
        "to": "0x7b79995e5f793a07bc00c21412e50ecae098e7f9",
        "gas": "0x8e5a",
        "value": "0x0",
        "input": "0x095ea7b3000000000000000000000000000000000022d473030f116ddee9f6b43ac78ba3ffffffffffffffffffffffffffffffffffffffffffffffffffffffffffffffff",
        "nonce": "0x2f",
        "chainId": "0xaa36a7"
      },
      "additionalContracts": [],
      "isFixedGasLimit": false
    },
    {
      "hash": "0xa76911872d9e44953f207b92d41ba0565d0d3395698fc9633260a791e1d5683c",
      "transactionType": "CALL",
      "contractName": null,
      "contractAddress": "0x000000000022d473030f116ddee9f6b43ac78ba3",
      "function": "approve(address,address,uint160,uint48)",
      "arguments": [
        "0x08210F9170F89Ab7658F0B5E3fF39b0E03C594D4",
        "0x429ba70129df741B2Ca2a85BC3A2a3328e5c09b4",
        "1461501637330902918203684832716283019655932542975",
        "281474976710655"
      ],
      "transaction": {
        "from": "0xa3ffc6ecf93a5ab2334aa4e146a4d49582b9e289",
        "to": "0x000000000022d473030f116ddee9f6b43ac78ba3",
        "gas": "0x96a0",
        "value": "0x0",
        "input": "0x87517c4500000000000000000000000008210f9170f89ab7658f0b5e3ff39b0e03c594d4000000000000000000000000429ba70129df741b2ca2a85bc3a2a3328e5c09b4000000000000000000000000ffffffffffffffffffffffffffffffffffffffff0000000000000000000000000000000000000000000000000000ffffffffffff",
        "nonce": "0x30",
        "chainId": "0xaa36a7"
      },
      "additionalContracts": [],
      "isFixedGasLimit": false
    },
    {
      "hash": "0x5de024ef086ef3ac60fdcc7131b66287cf4f8ce822af580f5ba60bf2f6abea9c",
      "transactionType": "CALL",
      "contractName": null,
      "contractAddress": "0x000000000022d473030f116ddee9f6b43ac78ba3",
      "function": "approve(address,address,uint160,uint48)",
      "arguments": [
        "0x7b79995e5f793A07Bc00c21412e50Ecae098E7f9",
        "0x429ba70129df741B2Ca2a85BC3A2a3328e5c09b4",
        "1461501637330902918203684832716283019655932542975",
        "281474976710655"
      ],
      "transaction": {
        "from": "0xa3ffc6ecf93a5ab2334aa4e146a4d49582b9e289",
        "to": "0x000000000022d473030f116ddee9f6b43ac78ba3",
        "gas": "0x9f6c",
        "value": "0x0",
        "input": "0x87517c450000000000000000000000007b79995e5f793a07bc00c21412e50ecae098e7f9000000000000000000000000429ba70129df741b2ca2a85bc3a2a3328e5c09b4000000000000000000000000ffffffffffffffffffffffffffffffffffffffff0000000000000000000000000000000000000000000000000000ffffffffffff",
        "nonce": "0x31",
        "chainId": "0xaa36a7"
      },
      "additionalContracts": [],
      "isFixedGasLimit": false
    },
    {
      "hash": "0xfa5d9f8a5d12b6eb2c289a66311806ac82e644984b42198bad4d2437db35b74a",
      "transactionType": "CALL",
      "contractName": null,
      "contractAddress": "0x429ba70129df741b2ca2a85bc3a2a3328e5c09b4",
      "function": "multicall(bytes[])",
      "arguments": [
        "[0xf702040500000000000000000000000008210f9170f89ab7658f0b5e3ff39b0e03c594d40000000000000000000000007b79995e5f793a07bc00c21412e50ecae098e7f90000000000000000000000000000000000000000000000000000000000800000000000000000000000000000000000000000000000000000000000000000003c00000000000000000000000078c1c2f5f6e20f62ca9e518a37e0b9cdf18ad0c0000000000000000000000000000000000000000100000000000000000000000000000000000000000000000000000000000000000000000000000000000000e00000000000000000000000000000000000000000000000000000000000000000, 0xdd46508f0000000000000000000000000000000000000000000000000000000000000040000000000000000000000000000000000000000000000000000000006a1313780000000000000000000000000000000000000000000000000000000000000400000000000000000000000000000000000000000000000000000000000000004000000000000000000000000000000000000000000000000000000000000000800000000000000000000000000000000000000000000000000000000000000004020d14140000000000000000000000000000000000000000000000000000000000000000000000000000000000000000000000000000000000000000000000040000000000000000000000000000000000000000000000000000000000000080000000000000000000000000000000000000000000000000000000000000024000000000000000000000000000000000000000000000000000000000000002a0000000000000000000000000000000000000000000000000000000000000030000000000000000000000000000000000000000000000000000000000000001a000000000000000000000000008210f9170f89ab7658f0b5e3ff39b0e03c594d40000000000000000000000007b79995e5f793a07bc00c21412e50ecae098e7f90000000000000000000000000000000000000000000000000000000000800000000000000000000000000000000000000000000000000000000000000000003c00000000000000000000000078c1c2f5f6e20f62ca9e518a37e0b9cdf18ad0c0ffffffffffffffffffffffffffffffffffffffffffffffffffffffffffffffc4000000000000000000000000000000000000000000000000000000000000003c000000000000000000000000000000000000000000000000000000031bf605840000000000000000000000000000000000000000000000000000000002625a01000000000000000000000000000000000000000000000000016345785d8a0001000000000000000000000000a3ffc6ecf93a5ab2334aa4e146a4d49582b9e28900000000000000000000000000000000000000000000000000000000000001800000000000000000000000000000000000000000000000000000000000000000000000000000000000000000000000000000000000000000000000000000004000000000000000000000000008210f9170f89ab7658f0b5e3ff39b0e03c594d40000000000000000000000007b79995e5f793a07bc00c21412e50ecae098e7f9000000000000000000000000000000000000000000000000000000000000004000000000000000000000000008210f9170f89ab7658f0b5e3ff39b0e03c594d4000000000000000000000000a3ffc6ecf93a5ab2334aa4e146a4d49582b9e28900000000000000000000000000000000000000000000000000000000000000400000000000000000000000007b79995e5f793a07bc00c21412e50ecae098e7f9000000000000000000000000a3ffc6ecf93a5ab2334aa4e146a4d49582b9e289]"
      ],
      "transaction": {
        "from": "0xa3ffc6ecf93a5ab2334aa4e146a4d49582b9e289",
        "to": "0x429ba70129df741b2ca2a85bc3a2a3328e5c09b4",
        "gas": "0xbc746",
        "value": "0x0",
        "input": "0xac9650d800000000000000000000000000000000000000000000000000000000000000200000000000000000000000000000000000000000000000000000000000000002000000000000000000000000000000000000000000000000000000000000004000000000000000000000000000000000000000000000000000000000000001800000000000000000000000000000000000000000000000000000000000000104f702040500000000000000000000000008210f9170f89ab7658f0b5e3ff39b0e03c594d40000000000000000000000007b79995e5f793a07bc00c21412e50ecae098e7f90000000000000000000000000000000000000000000000000000000000800000000000000000000000000000000000000000000000000000000000000000003c00000000000000000000000078c1c2f5f6e20f62ca9e518a37e0b9cdf18ad0c0000000000000000000000000000000000000000100000000000000000000000000000000000000000000000000000000000000000000000000000000000000e00000000000000000000000000000000000000000000000000000000000000000000000000000000000000000000000000000000000000000000000000000000000000000000000000000000000000000000000000000000000000464dd46508f0000000000000000000000000000000000000000000000000000000000000040000000000000000000000000000000000000000000000000000000006a1313780000000000000000000000000000000000000000000000000000000000000400000000000000000000000000000000000000000000000000000000000000004000000000000000000000000000000000000000000000000000000000000000800000000000000000000000000000000000000000000000000000000000000004020d14140000000000000000000000000000000000000000000000000000000000000000000000000000000000000000000000000000000000000000000000040000000000000000000000000000000000000000000000000000000000000080000000000000000000000000000000000000000000000000000000000000024000000000000000000000000000000000000000000000000000000000000002a0000000000000000000000000000000000000000000000000000000000000030000000000000000000000000000000000000000000000000000000000000001a000000000000000000000000008210f9170f89ab7658f0b5e3ff39b0e03c594d40000000000000000000000007b79995e5f793a07bc00c21412e50ecae098e7f90000000000000000000000000000000000000000000000000000000000800000000000000000000000000000000000000000000000000000000000000000003c00000000000000000000000078c1c2f5f6e20f62ca9e518a37e0b9cdf18ad0c0ffffffffffffffffffffffffffffffffffffffffffffffffffffffffffffffc4000000000000000000000000000000000000000000000000000000000000003c000000000000000000000000000000000000000000000000000000031bf605840000000000000000000000000000000000000000000000000000000002625a01000000000000000000000000000000000000000000000000016345785d8a0001000000000000000000000000a3ffc6ecf93a5ab2334aa4e146a4d49582b9e28900000000000000000000000000000000000000000000000000000000000001800000000000000000000000000000000000000000000000000000000000000000000000000000000000000000000000000000000000000000000000000000004000000000000000000000000008210f9170f89ab7658f0b5e3ff39b0e03c594d40000000000000000000000007b79995e5f793a07bc00c21412e50ecae098e7f9000000000000000000000000000000000000000000000000000000000000004000000000000000000000000008210f9170f89ab7658f0b5e3ff39b0e03c594d4000000000000000000000000a3ffc6ecf93a5ab2334aa4e146a4d49582b9e28900000000000000000000000000000000000000000000000000000000000000400000000000000000000000007b79995e5f793a07bc00c21412e50ecae098e7f9000000000000000000000000a3ffc6ecf93a5ab2334aa4e146a4d49582b9e28900000000000000000000000000000000000000000000000000000000",
        "nonce": "0x32",
        "chainId": "0xaa36a7"
      },
      "additionalContracts": [],
      "isFixedGasLimit": false
    }
  ],
  "receipts": [
    {
      "status": "0x1",
      "cumulativeGasUsed": "0xc36206",
      "logs": [
        {
          "address": "0x08210f9170f89ab7658f0b5e3ff39b0e03c594d4",
          "topics": [
            "0x8c5be1e5ebec7d5bd14f71427d1e84f3dd0314c0f7b2291e5b200ac8c7c3b925",
            "0x000000000000000000000000a3ffc6ecf93a5ab2334aa4e146a4d49582b9e289",
            "0x000000000000000000000000000000000022d473030f116ddee9f6b43ac78ba3"
          ],
          "data": "0xffffffffffffffffffffffffffffffffffffffffffffffffffffffffffffffff",
          "blockHash": "0xcdd73ee86b559684179ceaff1c2032214092b2cb67cab29098d4e7ee385b9ce5",
          "blockNumber": "0xa68252",
          "blockTimestamp": "0x6a13058c",
          "transactionHash": "0xd50474fde9d0f5e7092bd9ee0399bb3f45bfdc0a94fd5477c7a1dc874c1e5bdd",
          "transactionIndex": "0x73",
          "logIndex": "0x158",
          "removed": false
        }
      ],
      "logsBloom": "0x00000000000000000000000000000000000000000000000000000000000000000000000000000000000000000000000000000000800000000000000000200000000000000400000000004000000000002000000000000800000000000000000000000000000000000004040000000000000000000002000000000000000000000000000000000000000000000000000000000000000000000000000000000000020000000000000000000000000000000000000000000000000000000000000040000000000000000000000000000000000000000000000000000000000000000010000000000000000000000000000000000000000000000000000000000000",
      "type": "0x2",
      "transactionHash": "0xd50474fde9d0f5e7092bd9ee0399bb3f45bfdc0a94fd5477c7a1dc874c1e5bdd",
      "transactionIndex": "0x73",
      "blockHash": "0xcdd73ee86b559684179ceaff1c2032214092b2cb67cab29098d4e7ee385b9ce5",
      "blockNumber": "0xa68252",
      "gasUsed": "0x96e1",
      "effectiveGasPrice": "0x44a216b0",
      "from": "0xa3ffc6ecf93a5ab2334aa4e146a4d49582b9e289",
      "to": "0x08210f9170f89ab7658f0b5e3ff39b0e03c594d4",
      "contractAddress": null
    },
    {
      "status": "0x1",
      "cumulativeGasUsed": "0xc3c916",
      "logs": [
        {
          "address": "0x7b79995e5f793a07bc00c21412e50ecae098e7f9",
          "topics": [
            "0x8c5be1e5ebec7d5bd14f71427d1e84f3dd0314c0f7b2291e5b200ac8c7c3b925",
            "0x000000000000000000000000a3ffc6ecf93a5ab2334aa4e146a4d49582b9e289",
            "0x000000000000000000000000000000000022d473030f116ddee9f6b43ac78ba3"
          ],
          "data": "0xffffffffffffffffffffffffffffffffffffffffffffffffffffffffffffffff",
          "blockHash": "0xcdd73ee86b559684179ceaff1c2032214092b2cb67cab29098d4e7ee385b9ce5",
          "blockNumber": "0xa68252",
          "blockTimestamp": "0x6a13058c",
          "transactionHash": "0x9bae7f06bb6278c20c8339ca6c6ff49ff15e840e484e40bb9aee4095b033d5df",
          "transactionIndex": "0x74",
          "logIndex": "0x159",
          "removed": false
        }
      ],
      "logsBloom": "0x00000000000000000000000000000000000000000000000000000004000000000000000000000000000000000000000000000000800000000000000000200000000000000000000000004000000000002000000000000800000000000000000000000000000000000004000000000000000000000002000000000000000000000000000000000000000000000000000000000000000000000000000000000000020000000000000000000000000000080000000000000000000000000000000000000002000000000000000000000000000000000000000000000000000000000010000000000000000000000000000000000000000000000000000000000000",
      "type": "0x2",
      "transactionHash": "0x9bae7f06bb6278c20c8339ca6c6ff49ff15e840e484e40bb9aee4095b033d5df",
      "transactionIndex": "0x74",
      "blockHash": "0xcdd73ee86b559684179ceaff1c2032214092b2cb67cab29098d4e7ee385b9ce5",
      "blockNumber": "0xa68252",
      "gasUsed": "0x6710",
      "effectiveGasPrice": "0x44a216b0",
      "from": "0xa3ffc6ecf93a5ab2334aa4e146a4d49582b9e289",
      "to": "0x7b79995e5f793a07bc00c21412e50ecae098e7f9",
      "contractAddress": null
    },
    {
      "status": "0x1",
      "cumulativeGasUsed": "0xc43624",
      "logs": [
        {
          "address": "0x000000000022d473030f116ddee9f6b43ac78ba3",
          "topics": [
            "0xda9fa7c1b00402c17d0161b249b1ab8bbec047c5a52207b9c112deffd817036b",
            "0x000000000000000000000000a3ffc6ecf93a5ab2334aa4e146a4d49582b9e289",
            "0x00000000000000000000000008210f9170f89ab7658f0b5e3ff39b0e03c594d4",
            "0x000000000000000000000000429ba70129df741b2ca2a85bc3a2a3328e5c09b4"
          ],
          "data": "0x000000000000000000000000ffffffffffffffffffffffffffffffffffffffff0000000000000000000000000000000000000000000000000000ffffffffffff",
          "blockHash": "0xcdd73ee86b559684179ceaff1c2032214092b2cb67cab29098d4e7ee385b9ce5",
          "blockNumber": "0xa68252",
          "blockTimestamp": "0x6a13058c",
          "transactionHash": "0xa76911872d9e44953f207b92d41ba0565d0d3395698fc9633260a791e1d5683c",
          "transactionIndex": "0x75",
          "logIndex": "0x15a",
          "removed": false
        }
      ],
      "logsBloom": "0x00010000000000000000000000000000000000000000000000000000000000000000000000000040080400000000000000000000000000000000000000080000000000000000000000000000000000002000000000000000000000000000000000000000000000000004000000000000000000000002000000000800000000000020000000000000000000000000000000000000000000000000000000000000000000000000000000000000000000000040000000000000000000080000000000000000000000000000000000000000000000000000000040000000000000000000000000000000000000000000000000000000000000000000000400000400",
      "type": "0x2",
      "transactionHash": "0xa76911872d9e44953f207b92d41ba0565d0d3395698fc9633260a791e1d5683c",
      "transactionIndex": "0x75",
      "blockHash": "0xcdd73ee86b559684179ceaff1c2032214092b2cb67cab29098d4e7ee385b9ce5",
      "blockNumber": "0xa68252",
      "gasUsed": "0x6d0e",
      "effectiveGasPrice": "0x44a216b0",
      "from": "0xa3ffc6ecf93a5ab2334aa4e146a4d49582b9e289",
      "to": "0x000000000022d473030f116ddee9f6b43ac78ba3",
      "contractAddress": null
    },
    {
      "status": "0x1",
      "cumulativeGasUsed": "0xc4a326",
      "logs": [
        {
          "address": "0x000000000022d473030f116ddee9f6b43ac78ba3",
          "topics": [
            "0xda9fa7c1b00402c17d0161b249b1ab8bbec047c5a52207b9c112deffd817036b",
            "0x000000000000000000000000a3ffc6ecf93a5ab2334aa4e146a4d49582b9e289",
            "0x0000000000000000000000007b79995e5f793a07bc00c21412e50ecae098e7f9",
            "0x000000000000000000000000429ba70129df741b2ca2a85bc3a2a3328e5c09b4"
          ],
          "data": "0x000000000000000000000000ffffffffffffffffffffffffffffffffffffffff0000000000000000000000000000000000000000000000000000ffffffffffff",
          "blockHash": "0xcdd73ee86b559684179ceaff1c2032214092b2cb67cab29098d4e7ee385b9ce5",
          "blockNumber": "0xa68252",
          "blockTimestamp": "0x6a13058c",
          "transactionHash": "0x5de024ef086ef3ac60fdcc7131b66287cf4f8ce822af580f5ba60bf2f6abea9c",
          "transactionIndex": "0x76",
          "logIndex": "0x15b",
          "removed": false
        }
      ],
      "logsBloom": "0x00010000000000000000000000000000000000000000000000000000000000000000000000000042080000000000000000000000000000000000000000080000000000000000000000000040000000002000004000000000000000000000000000000000000000000004000000000000000000000002000000000800000000000020000000000000000000000000000000000000000000000000000000000000000000000000000000000000000000000000000000000000000000080000000000000000000000000000000000000000000000000000000040000000000000000000000000000000000000000000000000000000000000000000000000000400",
      "type": "0x2",
      "transactionHash": "0x5de024ef086ef3ac60fdcc7131b66287cf4f8ce822af580f5ba60bf2f6abea9c",
      "transactionIndex": "0x76",
      "blockHash": "0xcdd73ee86b559684179ceaff1c2032214092b2cb67cab29098d4e7ee385b9ce5",
      "blockNumber": "0xa68252",
      "gasUsed": "0x6d02",
      "effectiveGasPrice": "0x44a216b0",
      "from": "0xa3ffc6ecf93a5ab2334aa4e146a4d49582b9e289",
      "to": "0x000000000022d473030f116ddee9f6b43ac78ba3",
      "contractAddress": null
    },
    {
      "status": "0x1",
      "cumulativeGasUsed": "0x13c694a",
      "logs": [
        {
          "address": "0xe03a1074c86cfedd5c142c4f04f1a1536e203543",
          "topics": [
            "0xdd466e674ea557f56295e2d0218a125ea4b4f0f6f3307b95f85e6110838d6438",
            "0xde8425f83a965c99cfa40f2ebee4fdde37fd6224743168e3b3b33c72b474e767",
            "0x00000000000000000000000008210f9170f89ab7658f0b5e3ff39b0e03c594d4",
            "0x0000000000000000000000007b79995e5f793a07bc00c21412e50ecae098e7f9"
          ],
          "data": "0x0000000000000000000000000000000000000000000000000000000000800000000000000000000000000000000000000000000000000000000000000000003c00000000000000000000000078c1c2f5f6e20f62ca9e518a37e0b9cdf18ad0c000000000000000000000000000000000000000010000000000000000000000000000000000000000000000000000000000000000000000000000000000000000",
          "blockHash": "0xcdd73ee86b559684179ceaff1c2032214092b2cb67cab29098d4e7ee385b9ce5",
          "blockNumber": "0xa68252",
          "blockTimestamp": "0x6a13058c",
          "transactionHash": "0xfa5d9f8a5d12b6eb2c289a66311806ac82e644984b42198bad4d2437db35b74a",
          "transactionIndex": "0x7e",
          "logIndex": "0x232",
          "removed": false
        },
        {
          "address": "0x429ba70129df741b2ca2a85bc3a2a3328e5c09b4",
          "topics": [
            "0xddf252ad1be2c89b69c2b068fc378daa952ba7f163c4a11628f55a4df523b3ef",
            "0x0000000000000000000000000000000000000000000000000000000000000000",
            "0x000000000000000000000000a3ffc6ecf93a5ab2334aa4e146a4d49582b9e289",
            "0x00000000000000000000000000000000000000000000000000000000000088eb"
          ],
          "data": "0x",
          "blockHash": "0xcdd73ee86b559684179ceaff1c2032214092b2cb67cab29098d4e7ee385b9ce5",
          "blockNumber": "0xa68252",
          "blockTimestamp": "0x6a13058c",
          "transactionHash": "0xfa5d9f8a5d12b6eb2c289a66311806ac82e644984b42198bad4d2437db35b74a",
          "transactionIndex": "0x7e",
          "logIndex": "0x233",
          "removed": false
        },
        {
          "address": "0xe03a1074c86cfedd5c142c4f04f1a1536e203543",
          "topics": [
            "0xf208f4912782fd25c7f114ca3723a2d5dd6f3bcc3ac8db5af63baa85f711d5ec",
            "0xde8425f83a965c99cfa40f2ebee4fdde37fd6224743168e3b3b33c72b474e767",
            "0x000000000000000000000000429ba70129df741b2ca2a85bc3a2a3328e5c09b4"
          ],
          "data": "0xffffffffffffffffffffffffffffffffffffffffffffffffffffffffffffffc4000000000000000000000000000000000000000000000000000000000000003c000000000000000000000000000000000000000000000000000000031bf6058400000000000000000000000000000000000000000000000000000000000088eb",
          "blockHash": "0xcdd73ee86b559684179ceaff1c2032214092b2cb67cab29098d4e7ee385b9ce5",
          "blockNumber": "0xa68252",
          "blockTimestamp": "0x6a13058c",
          "transactionHash": "0xfa5d9f8a5d12b6eb2c289a66311806ac82e644984b42198bad4d2437db35b74a",
          "transactionIndex": "0x7e",
          "logIndex": "0x234",
          "removed": false
        },
        {
          "address": "0x08210f9170f89ab7658f0b5e3ff39b0e03c594d4",
          "topics": [
            "0xddf252ad1be2c89b69c2b068fc378daa952ba7f163c4a11628f55a4df523b3ef",
            "0x000000000000000000000000a3ffc6ecf93a5ab2334aa4e146a4d49582b9e289",
            "0x000000000000000000000000e03a1074c86cfedd5c142c4f04f1a1536e203543"
          ],
          "data": "0x0000000000000000000000000000000000000000000000000000000002625a00",
          "blockHash": "0xcdd73ee86b559684179ceaff1c2032214092b2cb67cab29098d4e7ee385b9ce5",
          "blockNumber": "0xa68252",
          "blockTimestamp": "0x6a13058c",
          "transactionHash": "0xfa5d9f8a5d12b6eb2c289a66311806ac82e644984b42198bad4d2437db35b74a",
          "transactionIndex": "0x7e",
          "logIndex": "0x235",
          "removed": false
        },
        {
          "address": "0x7b79995e5f793a07bc00c21412e50ecae098e7f9",
          "topics": [
            "0xddf252ad1be2c89b69c2b068fc378daa952ba7f163c4a11628f55a4df523b3ef",
            "0x000000000000000000000000a3ffc6ecf93a5ab2334aa4e146a4d49582b9e289",
            "0x000000000000000000000000e03a1074c86cfedd5c142c4f04f1a1536e203543"
          ],
          "data": "0x0000000000000000000000000000000000000000000000000000000002625a00",
          "blockHash": "0xcdd73ee86b559684179ceaff1c2032214092b2cb67cab29098d4e7ee385b9ce5",
          "blockNumber": "0xa68252",
          "blockTimestamp": "0x6a13058c",
          "transactionHash": "0xfa5d9f8a5d12b6eb2c289a66311806ac82e644984b42198bad4d2437db35b74a",
          "transactionIndex": "0x7e",
          "logIndex": "0x236",
          "removed": false
        }
      ],
      "logsBloom": "0x00000000000000000000001000000004000000000000000000000004080000000000000000000042080400000000000000000100000000000000000000000000002000000400000000000058000000002000004000000000000000000000000000000000020000000004040080000800000000000002100000000810000000000000000001000008000010000000000000000001000000000000000000200000000004000000000000000000000000080040000000400000000000000000000040000002000000000000000000000000000000000000000000001000000020001010000000000000200000000000000004000000000000000000000400000000",
      "type": "0x2",
      "transactionHash": "0xfa5d9f8a5d12b6eb2c289a66311806ac82e644984b42198bad4d2437db35b74a",
      "transactionIndex": "0x7e",
      "blockHash": "0xcdd73ee86b559684179ceaff1c2032214092b2cb67cab29098d4e7ee385b9ce5",
      "blockNumber": "0xa68252",
      "gasUsed": "0x80dba",
      "effectiveGasPrice": "0x44a216b0",
      "from": "0xa3ffc6ecf93a5ab2334aa4e146a4d49582b9e289",
      "to": "0x429ba70129df741b2ca2a85bc3a2a3328e5c09b4",
      "contractAddress": null
    }
  ],
  "libraries": [],
  "pending": [],
  "returns": {},
  "timestamp": 1779631252411,
  "chain": 11155111,
  "commit": "cd839aa"
}